:10051D006E524632344C30312B204D6F64756C6504
:10052D0000436865636B204F4B2100436865636B27
:10053D00204661696C656421002020202020202048
:0A054D002020202020202020200084
:100243001206D11205EE1206C81204B0EF7026FD95
:10025300FF12063F7BFF7A05791D120674E4FD7FCA
:100263000112063F7BFF7A05792E12067412069956
:100273001206998021E4FDFF12063F7BFF7A057980
:100283001D120674E4FD7F0112063F7BFF7A057998
:100293003812067480FEE4FDFF12063F7BFF7A05E9
:1002A3007946120674E4FD7F0112063F7BFF7A054F
:1002B3007946120674120301120437EF70FAFDFF38
:1002C30012063F7B017A0079001206747D08E4FF71
:1002D30012063F7B017A007920120674E4FD7F0148
:1002E30012063F7B017A0079401206747D087F0174
:0E02F30012063F7B017A00796012067480BA11
:0906B400007F027EC7DEFEDFFCC0
:0106BD00221A
:0806C8007F127EEBDEFEDFFC79
:0106D0002207
:0D069900007F087E017DF3DDFEDEFCDFFA50
:0106A6002231
:10065C00C2A3D2A41206B4D2A51206B4AD8012065F
:07066C00B4C2A5ED5480FFAC
:010673002264
:040617009000CEF091
:10061B0012065CEF70FAC2A5A20892A3C2A412063E
:10062B00B49000CEE0F5801206B4D2A51206B4C287
:04063B00A50206B45A
:1005EE00C2A5C2087438120617C208740C12061778
:1005FE00C2089000CE7406F012061BC2089000CE00
:09060E007401F012061B0206C87B
:10063F00AC05AB07EB7008C208EC2480120617EB71
:0D064F0064017008C208EC24C012061722D6
:100674001200F9600ED208120617740129F9E43A3F
:04068400FA80ED22E9
:0A06BE001122334455000000000033
:10014A004500C07735F0D3E74500C5C2C2C2C2C276
:10015A004100CAC34100CBC44100CCC54100CDC651
:10016A006020000000000000000000000000000005
:10017A000000000000000000000000000000000075
:10018A0000000000602000200000000000000000C5
:10019A000000000000000000000000000000000055
:1001AA000000000000000000602000400000000085
:1001BA000000000000000000000000000000000035
:1001CA000000000000000000000000006020006045
:1001DA000000000000000000000000000000000015
:1001EA000000000000000000000000000000000005
:1001FA0060200080000000000000000000000000F5
:10020A0000000000000000000000000000000000E4
:10021A0000000000602000A00000000000000000B4
:10022A0000000000000000000000000000000000C4
:08023A000000000000000000BC
:0406DF007F02DFFEB9
:0106E30022F4
:0506D900007F2BDFFE95
:0106DE0022F9
:0A05C200EBF0A3EAF0A3E9F0C29306
:1005CC00E4FEEEC39408748094805015EF3392953A
:1005DC00EF25E0FFD297A296E4334FFFC2970E802F
:0105EC00E12D
:0105ED0022EB
:10068800C2931205CCAC07AF051205CCD293AF04C8
:01069800223F
:0C06A700C2931205CCE4FF1205CCD293E4
:0106B3002224
:03058D009000D902
:100590001205C2AD07E4FC9000DCE0FFECC39F5005
:1005A0001CE4FF1205CC9000D9E0FBA3E0FAA3E025
:1005B000F98C82758300EF1201120C80DAD293AFAE
:0105C0000535
:0105C1002217
:030557009000D938
:10055A001205C2AD071206DFE4FC9000DCE0FFECF6
:10056A00C39F501A9000D9E0FBA3E475F001120171
:10057A0034A9F0FA1200F9FF1205CC0C80DCD293F0
:02058A00AF05BB
:01058C00224C
:1004B00078CE7C007D017BFF7A0679BE7E007F05C9
:1004C0001200D378D37C007D017BFF7A0679C37E4E
:1004D000007F051200D37B017A0079CE9000DC7496
:1004E00005F07F301205577B017A0079D39000DC4C
:1004F0007405F07F1012058D9000D3E06411701A1E
:10050000A3E064227014A3E06433700EA3E064449B
:0C0510007008A3E064557002FF227F0118
:01051C0022BC
:0806D1001206D9D293C2972250
:10030100C2927B017A0079C09000DC7405F07F2AEB
:100311001205577B017A0079C59000DC7405F07FE6
:100321002B1205577B017A0079CA9000DC7401F029
:100331007F2C1205577B017A0079CB9000DC740188
:10034100F07F2D1205577B017A0079CC9000DC7487
:1003510001F07F2E1205577B017A0079CD9000DCE8
:100361007401F07F2F1205577D3F7F211206887F90
:10037100221206887D207F311206887F321206887C
:100381007F331206887F341206887F351206887FF4
:10039100361206887D287F251206887D0F7F26125A
:0A03A10006887F20120688D29222FF
:100437007F071206A7AB07AD037F27120688EB30AD
:10044700E664C292540E24FE601C24FE602024FE43
:10045700602424FE602824FE602C240A70397B0166
:100467007A00790080267B017A007920801E7B0143
:100477007A00794080167B017A007960800E7B01D3
:100487007A00798080067B017A0079A09000DC747D
:1004970020F07F6112058D7DFF7FE2120688D292E0
:0804A7001206D97F00227F013B
:0104AF00222A
:030000000203AB4D
:0C03AB00787FE4F6D8FD7581210203F292
:10000300E709F608DFFA8046E709F208DFFA803EDF
:1000130088828C83E709F0A3DFFA8032E309F608CC
:10002300DFFA8078E309F208DFFA807088828C8334
:10003300E309F0A3DFFA806489828A83E0A3F608E8
:10004300DFFA805889828A83E0A3F208DFFA804CC2
:1000530080D280FA80C680D4806980F28033801099
:1000630080A680EA809A80A880DA80E280CA803302
:1000730089828A83ECFAE493A3C8C582C8CCC5837A
:10008300CCF0A3C8C582C8CCC583CCDFE9DEE7804A
:100093000D89828A83E493A3F608DFF9ECFAA9F0C9
:1000A300EDFB2289828A83ECFAE0A3C8C582C8CC1F
:1000B300C583CCF0A3C8C582C8CCC583CCDFEADE38
:1000C300E880DB89828A83E493A3F208DFF980CC9A
:1000D30088F0EF60010E4E60C388F0ED2402B40493
:1000E3000050B9F582EB2402B4040050AF2323453A
:0600F3008223900053730C
:1000F900BB010689828A83E0225002E722BBFE0205
:09010900E32289828A83E4932237
:10011200F8BB010DE58229F582E5833AF583E8F023
:10012200225006E92582C8F622BBFE05E92582C8CF
:02013200F222B7
:10013400A3F8E0C5F025F0F0E5821582700215837E
:06014400E0C838F0E822DB
:1003B700020243E493A3F8E493A34003F68001F217
:1003C70008DFF48029E493A3F85407240CC8C33347
:1003D700C4540F4420C8834004F456800146F6DF16
:1003E700E4800B010204081020408090014AE47E5B
:1003F700019360BCA3FF543F30E509541FFEE4930B
:10040700A360010ECF54C025E060A840B8E493A3D1
:10041700FAE493A3F8E493A3C8C582C8CAC583CAFC
:10042700F0A3C8C582C8CAC583CADFE9DEE780BEB4
:0102420000BB
:00000001FF
