:100943006E524632344C30312B204D6F64756C65DA
:1009530000436865636B204F4B2100436865636BFD
:10096300204661696C6564210054696D65733A20A2
:100973002020202020202020200053656E643A2070
:0B098300202020202020202020200029
:10056900E4F556F555F554F553120C47120B0912DB
:100579000C3E1208E5EF7026FDFF120B337BFF7A64
:10058900097943120BC8E4FD7F01120B337BFF7A13
:10059900097954120BC8120C0F120C0F8021E4FDBB
:1005A900FF120B337BFF7A097943120BC8E4FD7FF5
:1005B90001120B337BFF7A09795E120BC880FEE4C6
:1005C900FDFF120B337BFF7A09796C120BC8E4FD2E
:1005D9007F01120B337BFF7A09797D120BC8120A4E
:1005E90078850822E5092430F523E50A2430F52425
:1005F900E50B2430F52575262EE50C2430F527E585
:100609000D2430F5287529437B007A007922756518
:10061900207FA01209D37D0E7F20120BDED2B612E5
:100629000C55120B74EF70397F9F7E867D01FCABF0
:1006390056AA55A954A853C3120503501AE55624BE
:1006490001F556E43555F555E43554F554E435537B
:10065900F553120C0F800AE4755601F555F554F55A
:1006690053E47B107A27F9F8AF56AE55AD54AC5325
:10067900120463EF2430F54CE47B107A27F9F8AFC4
:1006890056AE55AD54AC53120463AC00AD01AE0285
:10069900AF03E47BE87A03F9F8120463EF2430F539
:1006A9004DE47BE87A03F9F8AF56AE55AD54AC5337
:1006B900120463AC00AD01AE02AF03E47B64FAF946
:1006C900F8120463EF2430F54EE47B64FAF9F8AFCD
:1006D90056AE55AD54AC53120463AC00AD01AE0235
:1006E900AF03E47B0AFAF9F8120463EF2430F54FFB
:1006F900E47B0AFAF9F8AF56AE55AD54AC5312047F
:1007090063EB2430F550E4F5517D06FF120B337B82
:10071900007A00794C120BC8120BB112072A020594
:01072900EAE5
:100ADE00C2B7755846AF581558EF70F9D2B7F558DA
:100AEE0030B7150558D3E5589405748094804003AB
:0A0AFE007F0022120C2A80E87F011D
:010B080022CA
:100A4200E4FBFAC2B70559E55970020558EF139253
:100A5200B7755800755906E5591559AC5870021505
:100A6200584C70F3D2B7EFC313FF0BBB00010AEB74
:050A720064084A70CE8B
:010A7700225C
:10098E007D087C00C2B70FBF0000D2B70FBF0000BA
:10099E000FBF0000A2B7E433C43333335480FBE9F6
:1009AE00C3134BF97E007F04EF1FAA0670011E4A87
:0D09BE0070F6ED1D70011CED4C70C9AF010D
:0109CB002209
:100BEF00120ADE120C2A7FCC120A427F44020A42FA
:100BFF00120ADE120C2A7FCC120A427FBE020A4270
:100BB100E4FFFE120BEF120BFF12098E8F57120981
:060BC1008EEFFEE557FF78
:010BC700220B
:080A08000608000000000000D8
:0D0C0F00007F087E017DF3DDFEDEFCDFFAD4
:010C1C0022B5
:080C3E007F127EEBDEFEDFFCFD
:010C4600228B
:090C2A00007F027EC7DEFEDFFC44
:010C3300229E
:040B94002430F55BB9
:100B9800C290A2089292120C2A855B80120C2AD26B
:090BA80090120C2AC290020C2AE2
:100B0900C291C290C208755B38120B98C208755B16
:100B19000C120B98C208755B06120B98C208755B1C
:070B290001120B98020C3EC3
:030B30000D7F0135
:100B3300AC07EC700AC208ED2480F55B120B98EC4D
:0F0B43006401700AC208ED24C0F55B120B982202
:100BC8001203B66010D208F55B120B98740129F96C
:060BD800E43AFA80EB2272
:04072A00AB07AA0669
:10072E00C3EA64809480501F7D057F01120B33D283
:10073E0008755B2D120B9875082DEB1B70011A6353
:10074E0003FF6302FF80127D057F01120B33D20877
:10075E00755B2B120B9875082BAD03AC02EC1202D5
:10076E00068F5A8E598D588C57E4FFFE7DC87C40FB
:10077E00AB5AAA59A958A8571200FBE4FBFAF9780C
:10078E003F12000A12023FAA06AB077C277D10AF6C
:10079E0003AE021203F18F097C277D10AF03AE0268
:1007AE001203F17E037FE8CFCDCFCECCCE1203F174
:1007BE008F0A7C037DE8AF03AE021203F17E007F49
:1007CE0064CFCDCFCECCCE1203F18F0B7C007D64E7
:1007DE00AF03AE021203F17E007F0ACFCDCFCECC97
:1007EE00CE1203F18F0CAE02AF037C007D0A120312
:1007FE00F18D0D7D067F01120B33D208E509120B28
:10080E0094120B30D208E50A120B94120B30D20858
:10081E00E50B120B940D7F01120B33D208755B2E74
:10082E00120B980D7F01120B33D208E50C120B94AC
:10083E000D7F01120B33D208E50D120B940D7F01C3
:0B084E00120B33D208755B43020B98BD
:0A0C340011223344550000000000B7
:100A10000547C2C2C2C2C20542C2C2C2C2C220206F
:100A200022000000000000000000000000000000A4
:100A300000000000000000000000000000000000B6
:010A400000B5
:040C55007F02DFFE3D
:010C59002278
:050C4F00007F2BDFFE19
:010C5400227D
:100B5200E4FEEEC39408748094805015EF339294AF
:100B6200EF25E0FFD297A296E4334207C2970E80A8
:010B7200E1A1
:010B7300225F
:100BDE00C293120B52AC07AF05120B52D293AF0455
:010BEE0022E4
:0C0C1D00C293120B52E4FF120B52D29350
:010C290022A8
:060AAD008B628A6389647C
:100AB300C293120B52AD07E4FCECC395655017E4E7
:100AC300FF120B52AB62AA63A9648C82758300EF99
:0A0AD3001203CF0C80E3D293AF05AD
:010ADD0022F6
:0709CC007B007565057F301B
:0609D3008B628A63896457
:1009D900C293120B52AD07120C55E4FCECC395659A
:1009E9005018AB620564E564AA637002056314F9E3
:0E09F9001203B6FF120B520C80E2D293AF0530
:010A070022CC
:1008E50078577C007D007BFF7A0C79347E007F058C
:1008F500120390785C7C007D007BFF7A0C79397E51
:10090500007F051203907A0079571209CC7B007A93
:1009150000795C7565057F10120AADE55C641170A0
:100925001AE55D64227014E55E6433700EE55F645C
:0D093500447008E56064557002FF227F01E8
:010942002292
:100A7800C2B67A0079471209CC7B007A00794275B0
:100A880065057F2A1209D37D1A7F24120BDE7D2883
:100A98007F25120BDE7D0F7F26120BDE1D7F2012B5
:050AA8000BDED2B622B6
:080C4700120C4FD293C2972258
:100B74007F07120C1D8F202095137DFF7F27120BFA
:100B8400DEC2937FE1120B52D2937F00227F0122B7
:100003000202ABE86480F8E933E83360110460F07E
:10001300ED33EC337009E8FCE9FDEAFEEBFF220463
:1000230060DED3EB9FEA9EE99DE8C2E78CF0C2F75E
:1000330095F0400CE8CCF8E9CDF9EACEFAEBCFFB2A
:1000430012027685D0F05804700320D5B3E804700B
:10005300075002B2D50202B592D5EC0460F7E4CCA6
:10006300C0E0C398F8603B94186008400DD0E0FBF3
:1000730002028DE4FBFAC9FC8028E830E406E4C9F7
:10008300FBE4CAFCE830E305E4C9CACBFCE8540747
:100093006010F8C3E913F9EA13FAEB13FBEC13FC52
:1000A300D8F130F52FC3E49CFCEF9BFFEE9AFEEDF5
:1000B30099FDD0E0FBEF4E4D4C701222DB030202A0
:1000C300B2EC2CFCEF33FFEE33FEED33FDED30E706
:1000D300EB02028DEF2BFFEE3AFEED39FDD0E0FB94
:1000E30050130BBB00030202B5ED13FDEE13FEEF3D
:0800F30013FFEC13FC02028D67
:1000FB00EC4D6011E8497017ED33EC3304600DE4FF
:10010B00FCFFFEFD22E933E8330470F80202AB1268
:10011B00027658046009E4CC248150062850090269
:10012B0002B52840030202B2C0E0EB4A7044B9802A
:10013B0006D0E0FB0202A1EF4E701CBD8008EBFF66
:10014B00EAFEE9FD80EBE98DF0A4FEE5F00201E4A7
:10015B00E9CDF9EAFEEBFFEF89F0A4FCE5F0CE89DF
:10016B00F0A42EFFE435F0CD89F0A42DFEE435F09C
:10017B008067EF4E7005BD80D780C3EF8BF0A4ACCA
:10018B00F0EE8BF0A42CFCE435F0F8EF8AF0A42C05
:10019B00E5F038FCE433CB8DF0A42CFCE5F03BF818
:1001AB00EE8AF0A42CFCE5F038F8E433CF89F0A408
:1001BB002CFCE5F038CF3400CE89F0A42FFFE5F00E
:1001CB003EFEE433C98DF0A42EFEE5F039CD8AF066
:1001DB00A42FFFE5F03EFEE43DFD33D0E0FB5007DE
:1001EB000BBB000F0202B5EC2CFCEF33FFEE33FE22
:0601FB00ED33FD02028D50
:1002010075F020800E75F010800575F0087D007E78
:10021100007F003392D530D5031204F5EC33401042
:10022100EF33FFEE33FEED33FDEC33FCD5F0ED2281
:0E023100E5F0247EA2D513CC92E7CDCEFF22BD
:10023F00EDD2E7CD33EC3392D524814006E4FFFEB7
:10024F00FDFC22FCE4CFCECDCC24E0501174FF8016
:10025F00EDC3CC13CCCD13CDCE13CECF13CF0470B3
:07026F00F030D5DE0204F5BA
:10027600E9D2E7C933E833F892D5EDD2E7CD33ECCE
:0702860033FC5002B2D52247
:10028D00EC30E7100FBF000C0EBE00080DBD0004D2
:10029D000BEB6014A2D5EB13FCED92E7FD2274FF7E
:1002AD00FCFDFEFF22E480F8A2D574FF13FC7D80D7
:0302BD00E480EFEB
:030000000208599A
:0C085900787FE4F6D8FD7581650208A0E8
:1002C000E709F608DFFA8046E709F208DFFA803E20
:1002D00088828C83E709F0A3DFFA8032E309F6080D
:1002E000DFFA8078E309F208DFFA807088828C8375
:1002F000E309F0A3DFFA806489828A83E0A3F60829
:10030000DFFA805889828A83E0A3F208DFFA804C02
:1003100080D280FA80C680D4806980F280338010D9
:1003200080A680EA809A80A880DA80E280CA803342
:1003300089828A83ECFAE493A3C8C582C8CCC583BA
:10034000CCF0A3C8C582C8CCC583CCDFE9DEE7808A
:100350000D89828A83E493A3F608DFF9ECFAA9F009
:10036000EDFB2289828A83ECFAE0A3C8C582C8CC5F
:10037000C583CCF0A3C8C582C8CCC583CCDFEADE78
:10038000E880DB89828A83E493A3F208DFF980CCDA
:1003900088F0EF60010E4E60C388F0ED2402B404D3
:1003A0000050B9F582EB2402B4040050AF2323457A
:0603B0008223900310738C
:1003B600BB010689828A83E0225002E722BBFE0245
:0903C600E32289828A83E4932278
:1003CF00F8BB010DE58229F582E5833AF583E8F064
:1003DF00225006E92582C8F622BBFE05E92582C810
:0203EF00F222F8
:1003F100C2D5EC30E709B2D5E4C39DFDE49CFCEE27
:1004010030E715B2D5E4C39FFFE49EFE120514C385
:10041100E49DFDE49CFC800312051430D507C3E480
:060421009FFFE49EFE2295
:1004270075F008758200EF2FFFEE33FECD33CDCC8C
:1004370033CCC58233C5829BED9AEC99E58298400F
:100447000CF582EE9BFEED9AFDEC99FC0FD5F0D6EC
:10045700E4CEFBE4CDFAE4CCF9A88222B800C1B916
:100467000059BA002DEC8BF084CFCECDFCE5F0CB54
:10047700F97818EF2FFFEE33FEED33FDEC33FCEB8D
:1004870033FB10D703994004EB99FB0FD8E5E4F948
:10049700FA227818EF2FFFEE33FEED33FDEC33FC35
:1004A700C933C910D7059BE99A4007EC9BFCE99A29
:1004B700F90FD8E0E4C9FAE4CCFB2275F010EF2F6E
:1004C700FFEE33FEED33FDCC33CCC833C810D7076E
:1004D7009BEC9AE899400AED9BFDEC9AFCE899F8A9
:0E04E7000FD5F0DAE4CDFBE4CCFAE4C8F9223C
:0E04F500C3E49FFFE49EFEE49DFDE49CFC2218
:10050300EB9FF5F0EA9E42F0E99D42F0E89C45F04E
:0105130022C5
:10086500020569E493A3F8E493A34003F68001F23B
:1008750008DFF48029E493A3F85407240CC8C33394
:10088500C4540F4420C8834004F456800146F6DF63
:10089500E4800B0102040810204080900A08E47EE1
:1008A500019360BCA3FF543F30E509541FFEE49358
:1008B500A360010ECF54C025E060A840B8E493A31F
:1008C500FAE493A3F8E493A3C8C582C8CAC583CA4A
:1008D500F0A3C8C582C8CAC583CADFE9DEE780BE02
:010A410000B4
:10051400BC000BBE0029EF8DF084FFADF022E4CCCB
:10052400F875F008EF2FFFEE33FEEC33FCEE9DEC94
:10053400984005FCEE9DFE0FD5F0E9E4CEFD22EDDA
:10054400F8F5F0EE8420D21CFEADF075F008EF2F24
:10055400FFED33FD4007985006D5F0F222C398FD15
:050564000FD5F0EA22B2
:00000001FF
