:10115C0020206E524632344C30312B204D6F64754A
:10116C006C6520436865636B204F4B212020003E4B
:10117C003E3E20412D54656D7065726174757265CB
:10118C003A204E4F2044415441203C3C3C003E3ED2
:10119C003E20422D54656D70657261747572653AAE
:1011AC00204E4F2044415441203C3C3C003E3E3EAE
:1011BC0020432D54656D70657261747572653A20AB
:1011CC004E4F2044415441203C3C3C003E3E3E208E
:1011DC00442D54656D70657261747572653A204E5C
:1011EC004F2044415441203C3C3C006E524632342A
:1011FC004C30312B204D6F64756C652043686563F2
:0A120C006B204661696C65642100E7
:0D18B000007F087E017DF3DDFEDEFCDFFA27
:0118BD002208
:100DA400121678E4FF12159812188D1218DD12121B
:100DB400CE12147DEF70607BFF7A11795C7D05FFA4
:100DC4001215459000F47468F09000F57432F07ECA
:100DD400047F8D12183F1218B0E4FF121598120FF9
:100DE400967BFF7A11797B7D05E4FF1215457BFF25
:100DF4007A11799A7D07E4FF1215457BFF7A117900
:100E0400B97D09E4FF1215457BFF7A1179D87D0B72
:100E1400E4FF12154580227BFF7A1179F77D05E402
:100E2400FF1215459000F47468F09000F57432F0E8
:100E34007E057F0F12183F80FE121404EF70FA7BB8
:100E4400017A0079007D057F121215457B017A0035
:100E540079207D077F121215457B017A0079407D48
:100E6400097F121215457B017A0079607D0B7F1290
:100E74001215457B017A0079001217227B017A0052
:100E840079201217227B017A0079401217227B0104
:090E94007A00796012172280A097
:10000300B6E0B5E3CEDECFDFCEC2B6C8B2C9BCAF71
:10001300CFB5CDB30057454C434F4D4520544F20EA
:100023004D592053595354454D000020004300457A
:10003300004C004D004F0053005400570059B2C903
:10004300B5E3B6C8B6E0BCAFCDB3CEC2CEDECFB556
:10005300CFDFA3BAB3C2CDA5CEB0CFA2D0C5D1A7AF
:10006300D4BAD5DFD7F7000000000000000000007D
:100073000000000000000000003E424280808080BB
:10008300804244380000000000FC42484878484859
:10009300404242FC0000000000E04040404040403D
:1000A300404042FE0000000000EE6C6C6C6C6C542F
:1000B300545454D600000000003844828282828265
:1000C3008282443800000000003E4242402018046F
:1000D3000242427C0000000000FE9210101010103B
:1000E300101010380000000000D654545454546CBF
:1000F300282828280000000000EE44442828101077
:10010300101010380000001000F83F00020011101A
:100113000910082001007FFC03800540092011100D
:100123002108C106010002000200020003FC0200D4
:1001330002003FF02010201020103FF00000248820
:10014300224442448004010000803FFE22202220FA
:100153003FFC2220222023E020002FF02410422005
:1001630041C08630380E0200020007F008203840F4
:10017300048003400C8071F802080C103220014007
:1001830001800E007000090008801FFC30805FF8BA
:1001930090801FF810801FFC1100FFFE054009200E
:1001A3003118C106010010401020202023FE4840D2
:1001B300F888110423FE4092F890409000901912A1
:1001C300E112420E0400000023F81208120883F81B
:1001D3004208420813F8100027FCE4A424A424A432
:1001E30024A42FFE000000003FF0020002000200E2
:1001F30002007FFC0480048004800880088010844F
:100203002084407C800000F83F0004000820104058
:100213003F800100061018087FFC0104092011101B
:10022300210845040200105010482040245C45E09A
:10023300F840105E23E04044FC48403000221C524A
:10024300E08A4306000200000000000000000000F6
:100253000000000018001800000000000000180053
:100263001800000000000000004004603C402458D7
:100273002BE028A02D20257C23A02120212C222423
:1002830020E00040000000000080004000700F806C
:1002930008100B600E20147813A01A3826C025808E
:1002A3004870001C0000000000C0044004400878AF
:1002B30009C0107028C0487C0BC40844084C085877
:1002C300084000400000000001000200044007E075
:1002D30005200640074004C00740018E20802410FB
:1002E300221801F000000000000004600820080448
:1002F30013F8100028E0480008E0081009E8091086
:1003030008F8000000000000003005200440004809
:100313000FBE308827C0010000FC3F8000800080B2
:100323000080030000000000000000C03C4028786B
:1003330029802A202DC0243023C020C021402244FC
:10034300243E00000000000001000100011007D05E
:100353000120015E7EA0010003E006200BA03220F5
:1003630003E0002000000000004004400440088433
:1003730008F819402A4048380840084808700840DF
:1003830008400040000020200007C000000FF000DC
:10039300001FF000001C3800001C3800001C38004F
:1003A300001CFF00001CFF80001CFF00001CF80065
:1003B300001CF800001CFF80001CFF80001CFF00D5
:1003C300001CF800001CF800001CF8000038FC00BA
:1003D3000071FE0000E7FF0000EFFF0001DFFF00F8
:1003E30001DFFF0001DFFF0001FFFF0000FFFF004F
:1003F30000FFFF0000FFFE00007FFE00003FFC0047
:10040300001FF0000007C00020201F001FE03FC0B6
:100413007FF87FE0FFFCFFE0FFFEF0E1E01EE0F18C
:10042300E00FE0F3C00FE0F3C007F0E3C007FFE322
:10043300C0077FC3C0003FC3C0001F03C000000349
:10044300C0000003C0000003C0000003C00000039D
:10045300C0000003C0000003C0000003C00000038D
:10046300C0000003C0020003C0070003C00700036D
:10047300C00F0001C00F0001E01F0000FC7E000060
:10048300FFFC00007FF800001FF02020001FF80091
:1004930000FFFE0001FFFF8007E007C00F8001E0BF
:1004A3001F0000F01C0000783C00003C7800001C9A
:1004B3007000080E703C3C0EE03C3C0EE03C3C07F8
:1004C300E0100807E0000007E0000007E000000775
:1004D300E0000007E0600007E0600007E078000E3E
:1004E300703F800E701F801E380F001C3C00003CC4
:1004F3001E0000780F0000F0078003E003F00FC038
:1005030001FFFF80007FFE00000FF0002020001F8E
:10051300F80000FFFE0001FFFF8007E007C00F8027
:1005230001E01F0000F01C0000783C00003C780054
:10053300001C7060060E70700E0EE018180EE0704E
:100543000E07E0600607E0000007E0000007E00098
:100553000007E0000007E01F7807E03BCC07E0203E
:10056300060E7020060E7020061E38380C1C3C1F29
:10057300F83C1E0000780F0000F0078003E003F052
:0E0583000FC001FFFF80007FFE00000FF000A0
:100F9600E49000F4F0A3F0D20B7E037F8912183F91
:100FA600C20B9000F474D0F0E4A3F0D20B7E047F61
:100FB6000B12183FC20B9000F47428F0A37410F0C3
:100FC60012108E9000F47428F0A37410F0D20B1255
:100FD600108EC20B9000F47428F0E4A3F09000D1B8
:100FE60074FFF0A37400F0A37469F0A37400F0A377
:100FF6007418F0A3E4F0A3740AF07BFF7A00792D4D
:101006001210B19000D17433F0D2087D231214EA85
:101016009000D17443F0D2087D331214EA9000D1C7
:101026007453F0D2087BEF7D43E4FF1214EE900078
:10103600D17463F0D2087BEF7D53E4FF1214EE9077
:1010460000D1747FF0A374EFF0A37468F0D2087B2C
:1010560077FDE4FF12162E9000D1747FF0E4A3F022
:10106600A3747FF0D2087B687D6BE4FF12162E9086
:1010760000D1747FF0A374EFF0A3747FF0D2087BE5
:08108600867D6B7FEF02162E40
:10121600F0A3EFF09000D6E0FFA3E09000E2CFF05D
:0E122600A3EFF09000CEE0FBA3E0FAA3E0F906
:101234009000DAEBF0A3EAF0A3E9F09000E0E0FE1E
:10124400A3E0FFD39480EE94009000DDE0F9A3E0E6
:10125400FAA3E040389000E7C9F0A3EAF0A3E9F06C
:10126400A3EEF0A3EFF09000E2E0FFA3E09000EC27
:10127400CFF0A3EFF09000DAE0FBA3E0FAA3E0F9EB
:10128400120B7FAA06AB077D107F1080399000E710
:10129400C9F0A3EAF0A3E9F09000E0A3E09000EA2B
:1012A400F09000E2E0FFA3E09000EBCFF0A3EFF0BA
:1012B4009000DAE0FBA3E0FAA3E0F9120CA8AA0676
:0A12C400AB077D107F081205912290
:10108E009000D174FFF0A37401F0A37409F0A3745F
:10109E0000F0A37403F0A3E4F0A3740AF07BFF7ACC
:0310AE0000794185
:0B10B1009000CEEBF0A3EAF0A3E9F002
:1010BC009000D4E0FEA3E0F5828E83E493FF7E00E3
:1010CC009000D8EEF0A3EFF09000D5E004F070069D
:1010DC009000D4E004F0EF4E60759000D8E0FEA3D1
:1010EC00E0FFC39480EE9400501C9000D1E0F9A373
:1010FC00E0FAA3E09000DDC9F0A3EAF0A3E9F0A3C5
:10110C00EE12121680AA9000D1E0F9A3E0FAA3E047
:10111C009000DDC9F0A3EAF0A3E9F09000D4E0FE62
:10112C00A3E0F5828E83E493FD7C009000D9E0FE71
:10113C00E42DFFEC3E9000E01212169000D5E00476
:0F114C00F060030210BC9000D4E004F00210BC6D
:01115B002271
:100B7F00E49000EEF0A3F09000EDE024FFFE900073
:100B8F00ECE034FF9000F0020C809000EEE0FEA34A
:100B9F00E0FFC39000F1E09FFF9000F0E09EFEC3E6
:100BAF00EF9402EE940050619000EFE025E0FF908B
:100BBF0000EEE0338F82F583120960FF9000EAE0C8
:100BCF00FCA3E0FDB50710ECB5F00C9000EEE0FFD4
:100BDF00A3E09000F280229000F1E025E0FF90006A
:100BEF00F0E0338F82F583120960B50513ECB5F091
:100BFF000F9000F0E0FFA3E0A3CFF0A3EFF0807819
:100C0F00E49000F2F0A3F0806F9000EEE0FEA3E01E
:100C1F00FF9000F1E02FFF9000F0E03EC313FEEFD6
:100C2F0013FF9000F2EEF0A3EFF0E025E0FF90004D
:100C3F00F2E0338F82F583120960FFAEF09000EA85
:100C4F00E0FCA3E0FD6F7002EC6E602CC3ED9FEC37
:100C5F009E9000F3E0500E24FFFE9000F2E034FF70
:100C6F009000F0800C2401FE9000F2E03400900020
:100C7F00EEF0A3CEF0020B999000F2E0FEA3E07825
:100C8F0005C333CE33CED8F9FF9000E7A3E0FAA324
:080C9F00E02FF9EA3EFEAF016F
:010CA700222A
:0B0CA8009000E4EBF0A3EAF0A3E9F0F9
:100CB300E49000EDF09000EBA3E0020D769000EDE0
:100CC300E0FFA3E0C39FFFE49400FEC3EF9402EEB2
:100CD3006480948050619000E4E0FBA3E0FAA3E019
:100CE300F99000EDE075F002A4F58285F083120916
:100CF30060FF9000EAE0FD7C00B5070AECB5F00662
:100D03009000EDE0802B9000E4E0FBA3E0FAA3E089
:100D1300F99000EEE075F002A4F58285F0831209E4
:100D230060B5050CECB5F0089000EEE0A3F0805739
:100D3300E49000EFF080509000EDE0FFA3E02FFF80
:100D4300E433C313EF13A3F09000E4E0FBA3E0FA52
:100D5300A3E0F99000EFE0FF75F002A4F58285F0BF
:100D630083120960FE9000EAE0FD6E601AEED39DE7
:100D73004009EF149000EEF0020CC09000EFE00485
:100D83009000EDF0020CC09000EFE075F010A4FFAE
:100D93009000E7A3E0FAA3E02FF9EA35F0FEAF01F4
:010DA300222D
:0E0591009000E4EFF0A3EDF0A3EAF0A3EBF08E
:10059F009000F4E0FF5407FE9000E8F09000E4E0D4
:1005AF002EF09000EDEFF09000E7E024FFF09000C8
:1005BF00E6E034FFF0E49000EAF09000E5E0FF9011
:1005CF0000EAE0C39F400302076B9000EDE090004C
:1005DF00F4F09000E8E0A3F09000E4E0FF9000E971
:0805EF00E0C39F400302072F47
:1005F7009000E6E0FEA3E0F5828E83E4939000EBA3
:10060700F09000E7E004F070069000E6E004F09058
:1006170000E6E0FEA3E0F5828E83E4939000ECF021
:10062700300B0A9000EBE0F4F0A3E0F4F0E4900064
:10063700EEF09000E8E0FF9000EEE0C39F502690B8
:1006470000ECE0C313F09000EBE0FE54016401708E
:1006570005A3E02480F0EEC3139000EBF09000EECA
:10066700E004F080CDEF702D9000E9E02408FFE46E
:1006770033FE9000E4E0C39FEE6480F874809850E6
:10068700141217819000E9E02408F09000F4E024A8
:1006970008F00207241217811218D59000EBEFF02B
:1006A7001217819000E9E02408F09000F4E0240894
:1006B700F07DFF9000E4E054079000EEF09000EE2C
:1006C700E0D39400748094804011ED13FD9000F402
:1006D700E014F09000EEE014F080E29000EE74FF7A
:1006E700F09000E9E0FF9000E4E0C39F5015900010
:1006F700E9E014F09000F4E014F09000EEE025E05B
:10070700F080DE9000EEE05DFD9000ECE05DFFF034
:10071700AE05EEF4FE9000EBE05E4FA3F09000EC28
:05072700E0FF1218EDD7
:10072C000205E79000E8E0FF60269000E4E0FE3070
:10073C00E01EEFC39E40047F0180027F00EF540750
:10074C00600E9000E7E024FFF09000E6E034FFF04C
:10075C009000EAE004F09000F5E004F00205C99086
:10076C0000E8E0FF9000E4E0C39FFF9000EDE0FEA6
:10077C00C374F09EC39F5006E49000F4F0229000E6
:0F078C00F5E0FF9000E5E0FEC3EF9E9000F5F072
:01079B00223B
:04183F008F828E8383
:10184300E493FFA3E493FEA3FDAA83AB8202059175
:0415E400A209920ABC
:1015E8009000DC7480F09000F4E05407FFEFD3948F
:1015F8000074809480400A9000DCE0FE13F01F80A5
:10160800EC1217811218D59000DDEFF012178190B7
:1016180000DCE0300A06FFA3E04F8005F4FFA3E0FA
:051628005FFF1218ED48
:01162D00229A
:080998009000D7F0A2089209BB
:0D09A0009000D6EBF09000D4EFF0A3EDF046
:1009AD009000F4EFF0A3EDF01215E49000D4E0FF09
:1009BD009000D6E0FEC39F4005EE9FFF800C900097
:1009CD00D6E0FF9000D4E0C39FFF9000D8EFF090E9
:1009DD0000D5E0FF9000D7E0FEC39F4005EE9FFFDE
:1009ED00800C9000D7E0FF9000D5E0C39FFF9000F2
:1009FD00D9EFF09000D8E06F703F9000D6E0FF90F7
:100A0D0000F4E06F7003020B7E9000D4E0FEEFD394
:100A1D009E9000F4E0400404F0800214F09000D5A4
:100A2D00E0FF9000D7E0D39F9000F5E0400404F084
:100A3D00800214F01215E480C19000D9E0FF9000FF
:100A4D00D8E0D39F5003020AE89000DAE4F0A3EF58
:100A5D00F0E49000D9F09000D6E0FF9000F4E06F44
:100A6D007003020B7E9000D4E0FEEFD39E9000F455
:100A7D00E0400404F0800214F09000D9E004F090FE
:100A8D0000D5E0FB9000D7E0D39B9000D9E0FF7E2E
:100A9D0000A3E0FCA3E0FD401C1208CD9000D8E0BF
:100AAD00FDC3137583002FFFE5833EFE7C00120806
:100ABD00DFEB2F801C1208CD9000D8E0FDC3137A18
:100ACD00002FFFEA3EFE7C001208DF9000D5E0C348
:100ADD009F9000F5F01215E4020A639000D8E0FF34
:100AED009000DAE4F0A3EFF0E49000D8F09000D796
:100AFD00E0FF9000F5E06F60789000D5E0FEEFD359
:100B0D009E9000F5E0400404F0800214F09000D8AF
:100B1D00E004F09000D4E0FB9000D6E0D39B900071
:100B2D00D8E0FF7E009000DAE0FCA3E0FD401C124F
:100B3D0008CD9000D9E0FDC3137583002FFFE58329
:100B4D003EFE7C001208DFEB2F801C1208CD9000BA
:100B5D00D9E0FDC3137A002FFFEA3EFE7C00120898
:100B6D00DF9000D4E0C39F9000F4F01215E4020A68
:010B7D00FA7D
:010B7E002254
:0414EA007BEFE4FFB1
:1014EE009000CFEDF09000CEEFF09000D0EBF090AA
:1014FE0000CFE0FD1209989000D0E0FBFF9000CFE6
:10150E00E0FD9000D1E01209989000D0E0FFA3E03A
:10151E00FD9000CEE0FB9000D7ED12099B9000CE1F
:10152E00E0FBFF9000D1E0FD9000CFE09000D7F0FF
:07153E00A20892090209A0B6
:10162E009000CEEFF0A3EDF0A3EBF0A3E09000D787
:10163E00F0A20892091209A09000D0E0FFA3E0FDED
:10164E00A3E0FBA3E09000D7F0A20892091209A034
:10165E009000D2E0FFA3E0FD9000CEE0FBA3E0906F
:0A166E0000D7F0A20892090209A0BB
:051598009000CEEFF011
:10159D001217CF7FB01217F1E49000CFF09000CF6B
:1015AD00E0C39480748094805028E4A3F09000D020
:1015BD00E0C3941E7480948050109000CEE0FF1212
:1015CD0018ED9000D0E004F080E39000CFE004F03F
:0715DD0080CB7FB20217F181
:101781009000F4E0131313541FFD7C00A3E075F0E7
:101791001EA42DFFEC35F0CF2400CF340FFEAD0792
:0717A100EEFB7F240217D4C8
:10167800C291D293D2921217CFE4FBFD7F4012178A
:10168800D4E4FB7D1E7F411217D47B0FE4FD7F421B
:101698001217D4E4FB7D1E7F431217D4E4FB7D02AE
:0F16A8007F221217D47F801217F17F9C0217F157
:0718ED00AD077FC002187B6C
:0818D5007FC11217F102185344
:1017F1009000F1EFF01217A89000F1E0F580D2907F
:0A180100C291C29300D293D291224B
:10187B009000EFEFF0AF0512180B9000EFE0FF02B6
:02188B0017F153
:0517CF00E4FBFD7F2496
:1017D4009000EFEFF0A3EBF0AF0512180B9000F0C0
:0D17E400E0FF12180B9000EFE0FF0217F17C
:101853001217A87580FFC290C291C29200AF80D2C6
:0318630092D2918D
:01186600225F
:10180B009000F1EFF01217A89000F1E0F580C29074
:0A181B00C291C29300D293D2912231
:1017A8007580FFD290C291E4FFEFC39414748094C3
:1017B800805011C29200AE80D292EE54036403604E
:0617C800030F80E5D29141
:0117CE0022F8
:02182500AC070E
:10182700ED75F01EA4AD047C002DFFEC35F0FEAD88
:0818370007EEFB7F240217D429
:101867009000D3EBF01218259000D3E024E0FD7F21
:04187700C402187B14
:101545009000CEEFF0A3EDF0A3EBF0A3EAF0A3E952
:10155500F09000D0E0FBA3E0FAA3E0F9120892FBBB
:1015650060309000CEE0D3941D748094804006E4F2
:10157500F0A3E004F09000CEE0FFA3E0FD121867B1
:101585009000CEE004F09000D1E475F0011209342A
:0315950080BF22F2
:0A18CB001122334455000000000014
:100E9D004500C07735F0D3E74500C5C2C2C2C2C216
:100EAD004100CAC34100CBC44100CCC54100CDC6F1
:100EBD0060200000000000000000000000000000A5
:100ECD000000000000000000000000000000000015
:100EDD000000000060200020000000000000000065
:100EED0000000000000000000000000000000000F5
:100EFD000000000000000000602000400000000025
:100F0D0000000000000000000000000000000000D4
:100F1D0000000000000000000000000060200060E4
:100F2D0000000000000000000000000000000000B4
:100F3D0000000000000000000000000000000000A4
:100F4D006020008000000000000000000000000094
:100F5D000000000000000000000000000000000084
:100F6D0000000000602000A0000000000000000054
:100F7D000000000000000000000000000000000064
:080F8D0000000000000000005C
:0418FA007F02DFFE8C
:0118FE0022C7
:0518F400007F2BDFFE68
:0118F90022CC
:0A175500EBF0A3EAF0A3E9F0C29460
:10175F00E4FEEEC39408748094805015EF33929595
:10176F00EF25E0FFD2B6A297E4334FFFC2B60E804B
:01177F00E188
:011780002246
:10189F00C29412175FAC07AF0512175FD294AF0453
:0118AF002216
:0C18BE00C29412175FE4FF12175FD2946F
:0118CA0022FB
:0316ED009000D991
:1016F000121755AD07E4FC9000DCE0FFECC39F50EF
:101700001CE4FF12175F9000D9E0FBA3E0FAA3E00E
:10171000F98C82758300EF1208AB0C80DAD294AF9B
:0117200005C3
:0117210022A5
:0316B7009000D9C7
:1016BA00121755AD071218FAE4FC9000DCE0FFECB3
:1016CA00C39F501A9000D9E0FBA3E475F0011209F8
:1016DA004AA9F0FA120892FF12175F0C80DCD29422
:0216EA00AF054A
:0116EC0022DB
:10147D0078CE7C007D017BFF7A1879CB7E007F05CD
:10148D0012086C78D37C007D017BFF7A1879D07EB1
:10149D00007F0512086C7B017A0079CE9000DC7418
:1014AD0005F07F301216B77B017A0079D39000DCFE
:1014BD007405F07F101216ED9000D3E06411701AD0
:1014CD00A3E064227014A3E06433700EA3E06444BF
:0C14DD007008A3E064557002FF227F013C
:0114E90022E0
:0818DD001218F4D294C2B622E5
:1012CE00C2B77B017A0079C09000DC7405F07F2AEA
:1012DE001216B77B017A0079C59000DC7405F07F99
:1012EE002B1216B77B017A0079CA9000DC7401F0DC
:1012FE007F2C1216B77B017A0079CB9000DC74013B
:10130E00F07F2D1216B77B017A0079CC9000DC7439
:10131E0001F07F2E1216B77B017A0079CD9000DC9A
:10132E007401F07F2F1216B77D3F7F2112189F7F19
:10133E002212189F7D207F3112189F7F3212189F24
:10134E007F3312189F7F3412189F7F3512189F7F9C
:10135E003612189F7D287F2512189F7D0F7F26122B
:0A136E00189F7F2012189FD2B722AB
:101404007F071218BEAB07AD037F2712189FEB307E
:10141400E664C2B7540E24FE601C24FE602024FE41
:10142400602424FE602824FE602C240A70397B0189
:101434007A00790080267B017A007920801E7B0166
:101444007A00794080167B017A007960800E7B01F6
:101454007A00798080067B017A0079A09000DC74A0
:1014640020F07F611216ED7DFF7FE212189FD2B744
:081474001218F47F00227F0131
:01147C00224D
:10188D0053890F438920758DFD758BFDD28E43983D
:02189D005022D7
:0818E5008F993099FDC2992290
:101722009000CEEBF0A3EAF0A3E9F09000CEE0FB4C
:10173200A3E0FAA3E0F912089260179000CEA3E4A6
:1017420075F00112094AA9F0FA120892FF1218E57F
:0317520080D92219
:0300000002137870
:0C137800787FE4F6D8FD7581210213BFD8
:10079C00E709F608DFFA8046E709F208DFFA803E3F
:1007AC0088828C83E709F0A3DFFA8032E309F6082C
:1007BC00DFFA8078E309F208DFFA807088828C8394
:1007CC00E309F0A3DFFA806489828A83E0A3F60848
:1007DC00DFFA805889828A83E0A3F208DFFA804C22
:1007EC0080D280FA80C680D4806980F280338010F9
:1007FC0080A680EA809A80A880DA80E280CA803362
:10080C0089828A83ECFAE493A3C8C582C8CCC583D9
:10081C00CCF0A3C8C582C8CCC583CCDFE9DEE780A9
:10082C000D89828A83E493A3F608DFF9ECFAA9F028
:10083C00EDFB2289828A83ECFAE0A3C8C582C8CC7E
:10084C00C583CCF0A3C8C582C8CCC583CCDFEADE97
:10085C00E880DB89828A83E493A3F208DFF980CCF9
:10086C0088F0EF60010E4E60C388F0ED2402B404F2
:10087C000050B9F582EB2402B4040050AF23234599
:06088C0082239007EC73CB
:10089200BB010689828A83E0225002E722BBFE0264
:0908A200E32289828A83E4932297
:1008AB00F8BB010DE58229F582E5833AF583E8F083
:1008BB00225006E92582C8F622BBFE05E92582C82F
:0208CB00F22217
:1008CD00EF8DF0A4A8F0CF8CF0A428CE8DF0A42E3F
:0208DD00FE22F9
:1008DF00BC000BBE0029EF8DF084FFADF022E4CCFD
:1008EF00F875F008EF2FFFEE33FEEC33FCEE9DECC6
:1008FF00984005FCEE9DFE0FD5F0E9E4CEFD22ED0C
:10090F00F8F5F0EE8420D21CFEADF075F008EF2F55
:10091F00FFED33FD4007985006D5F0F222C398FD46
:05092F000FD5F0EA22E3
:10093400C5F0F8A3E028F0C5F0F8E582158270024E
:060944001583E038F022EB
:10094A00A3F8E0C5F025F0F0E58215827002158360
:06095A00E0C838F0E822BD
:10096000BB0110E58229F582E5833AF583E0F5F0D5
:10097000A3E0225009E92582F886F008E622BBFEB2
:100980000AE92582F8E2F5F008E222E5832AF583F8
:08099000E993F5F0A3E99322BD
:10138400020DA4E493A3F8E493A34003F68001F2CE
:1013940008DFF48029E493A3F85407240CC8C3336A
:1013A400C4540F4420C8834004F456800146F6DF39
:1013B400E4800B0102040810204080900E9DE47E1E
:1013C400019360BCA3FF543F30E509541FFEE4932E
:1013D400A360010ECF54C025E060A840B8E493A3F5
:1013E400FAE493A3F8E493A3C8C582C8CAC583CA20
:1013F400F0A3C8C582C8CAC583CADFE9DEE780BED8
:010F9500005B
:00000001FF
