:1007DF006E524632344C30312B204D6F64756C6540
:1007EF0000436865636B204F4B2100537973746529
:1007FF006D20646574656374696F6E006973206E34
:10080F006F726D616C2100412D54454D503A20207F
:10081F002020202020202000422D54454D503A20EA
:10082F00202020202020202000432D54454D503AD9
:10083F0020202020202020202000442D54454D50E2
:10084F003A20202020202020202000436865636B61
:10085F00204661696C65642100D6BBBFC9CFD4CA7D
:10086F00BEB1BEBBFACEC2B6C8004C2D74656D705A
:0B087F003A2020202020202020200014
:1006E500120D23120C797F0A7E00120C35120A397D
:1006F500EF706E7BFF7A0779DFFDFF120B2C7BFF16
:100705007A0779F0E4FD7F01120B2C7BFF7A0779DC
:10071500FAE4FD7F02120B2C7BFF7A08790BE4FDCE
:100725007F03120B2C7FDC7E05120C357BFF7A08CC
:100735007916E4FDFF120B2C7BFF7A087927E4FD7F
:100745007F01120B2C7BFF7A087938E4FD7F0212BA
:100755000B2C7BFF7A087949E4FD7F03120B2C8073
:100765003B7BFF7A0779DFE4FDFF120B2C7BFF7AD9
:1007750008795AE4FD7F01120B2C7BFF7A08796812
:10078500E4FD7F02120B2C7BFF7A087979E4FD7F6B
:1007950003120B2C120C961204AC80F812088A1264
:1007A50009C0EF70FA7B017A0079007D04FF120B16
:1007B5002C7B017A0079207D047F01120B2C7B01B3
:1007C5007A0079407D047F02120B2C7B017A007937
:0A07D500607D047F03120B2C80C529
:0B0CFD000000007F0B7EBEDEFEDFFC6F
:010D080022C8
:100C5300C2807D46AF051DEF70FAD280FD30801350
:100C63000DEDD394057480948040037F0022120C11
:050C7300FD80EA7F0195
:010C78002259
:080AA600120C53120CFD7FCC71
:100AAE00E4FBFAC2809000D0E004F070069000CF14
:100ABE00E004F0EF1392809000CFE4F0A37406F000
:100ACE009000CF74FFF5F012042745F070F2D2803B
:0F0ADE00EFC313FF0BBB00010AEB64084A70C49F
:010AED0022E6
:100AEE007D087C00C2800FBF0000D2800FBF0000C7
:100AFE000FBF0000A280E433C43333335480FBE9CC
:100B0E00C3134BF97E007F04EF1FAA0670011E4A25
:0D0B1E0070F6ED1D70011CED4C70C9AF01AB
:010B2B0022A7
:080D1300120AA67F44020AAE99
:080D1B00120AA67FBE020AAE17
:100C9600E4FFFE120D13120D1B120AEE9000CEEFAA
:0A0CA600F0120AEEEFFEE0FDEDFF94
:010CB0002221
:0A0D090011223344550000000000E1
:1005E0004500C07735F0D3E74500C5C2C2C2C2C2DC
:1005F0004100CAC34100CBC44100CCC54100CDC6B7
:10060000602000000000000000000000000000006A
:1006100000000000000000000000000000000000DA
:10062000000000006020002000000000000000002A
:1006300000000000000000000000000000000000BA
:1006400000000000000000006020004000000000EA
:10065000000000000000000000000000000000009A
:1006600000000000000000000000000060200060AA
:10067000000000000000000000000000000000007A
:10068000000000000000000000000000000000006A
:10069000602000800000000000000000000000005A
:1006A000000000000000000000000000000000004A
:1006B00000000000602000A000000000000000001A
:1006C000000000000000000000000000000000002A
:0806D000000000000000000022
:040D31007F02DFFE60
:010D3500229B
:050D2B00007F2BDFFE3C
:010D300022A0
:0A0BFD00EBF0A3EAF0A3E9F0C2A0B8
:100C0700E4FEEEC39408748094805015EF3392A1EC
:100C1700EF25E0FFD2A4A2A3E4334FFFC2A40E80C6
:010C2700E1EB
:010C280022A9
:100CC500C2A0120C07AC07AF05120C07D2A0AF04E7
:010CD50022FC
:0C0CD600C2A0120C07E4FF120C07D2A011
:010CE20022EF
:030B9B009000D9EE
:100B9E00120BFDAD07E4FC9000DCE0FFECC39F50B0
:100BAE001CE4FF120C079000D9E0FBA3E0FAA3E0CF
:100BBE00F98C82758300EF1203CF0C80DAD2A0AFCE
:010BCE000521
:010BCF002203
:030B65009000D924
:100B6800120BFDAD07120D31E4FC9000DCE0FFEC48
:100B7800C39F501A9000D9E0FBA3E475F00112045A
:100B880027A9F0FA1203B6FF120C070C80DCD2A0DA
:020B9800AF05A7
:010B9A002238
:100A390078CE7C007D017BFF7A0D79097E007F05E8
:100A490012039078D37C007D017BFF7A0D790E7EAD
:100A5900007F051203907B017A0079CE9000DC7447
:100A690005F07F30120B657B017A0079D39000DCA9
:100A79007405F07F10120B9B9000D3E06411701A7B
:100A8900A3E064227014A3E06433700EA3E064440D
:0C0A99007008A3E064557002FF227F018A
:010AA500222E
:080D2300120D2BD2A0C2A42284
:10088A00C2A77B017A0079C09000DC7405F07F2A48
:10089A00120B657B017A0079C59000DC7405F07F44
:1008AA002B120B657B017A0079CA9000DC7401F087
:1008BA007F2C120B657B017A0079CB9000DC7401E6
:1008CA00F07F2D120B657B017A0079CC9000DC74E5
:1008DA0001F07F2E120B657B017A0079CD9000DC46
:1008EA007401F07F2F120B657D3F7F21120CC57FAB
:1008FA0022120CC57D207F31120CC57F32120CC525
:10090A007F33120CC57F34120CC57F35120CC57F9C
:10091A0036120CC57D287F25120CC57D0F7F261245
:0A092A000CC57F20120CC5D2A722D5
:1009C0007F07120CD6AB07AD037F27120CC5EB30A7
:1009D000E664C2A7540E24FE601C24FE602024FEA0
:1009E000602424FE602824FE602C240A70397B01D8
:1009F0007A00790080267B017A007920801E7B01B5
:100A00007A00794080167B017A007960800E7B0144
:100A10007A00798080067B017A0079A09000DC74EE
:100A200020F07F61120B9B7DFF7FE2120CC5D2A7E5
:080A3000120D2B7F00227F0153
:010A3800229B
:0C06D8004900DD000000000000000000F0
:0C0C2900C296D297AF038FB07F017E000F
:100C3500D3EF9400EE940040147D6E7C00ED1D70A2
:0D0C4500011CED4C70F7EF1F70E61E80E300
:010C5200227F
:100CB10075B0FFC295D296D297E5B020E7FB120C32
:040CC10031C2972283
:0D0CE300AB07120CB1C295120C29C297226A
:0D0CF000AB07120CB1D295120C29C297224D
:100C79007F30120CE37F057E00120C357F0C120CBD
:0D0C8900E37F057E00120C357F01020CE3B5
:100BD000EF7006ED2480FA801FEF64017006ED24AB
:100BE00090FA8014EF64027006ED2488FA8009EF11
:0D0BF00064037004ED2498FAAF02020CE3D8
:100B2C009000D4EBF0A3EAF0A3E9F0120BD0900004
:100B3C00D4E0FBA3E0FAA3E0F91203B6601A90002C
:100B4C00D4A3E475F001120427A9F0FA1203B6FF3E
:090B5C00120CF0120C3180D622BB
:0804AC009000CEEEF0A3EFF08A
:1004B400C3EE648094807B007A005032792D7D04F1
:1004C4007F03120B2C9000DD742DF09000CFE024FC
:1004D400FFF09000CEE034FFF0E0FEA3E0F4FFEE86
:1004E400F4FE9000CEF0A3EFF0FDAC068017792B5C
:1004F4007D047F03120B2C9000DD742BF09000CE52
:10050400E0FCA3E0FDEC1202069000D012044BE4E0
:10051400FFFE7DC87C409000D0E0F8A3E0F9A3E0A2
:10052400FAA3E0FB1200FBE4FBFAF9783F12000A9D
:1005340012023F9000CEEEF0A3EFF09000CEE0FA6E
:10054400A3E0FB7C277D10FFAE021203F1EF243001
:100554009000DEF07C277D10AF03AE021203F17E23
:10056400037FE8CFCDCFCECCCE1203F1EF2430A35E
:10057400F09000CEA3E07C037DE8FFAE021203F10D
:100584007E007F64CFCDCFCECCCE1203F1EF2430EA
:100594009000E0F0A3742EF07C007D64AF03AE0203
:1005A4001203F17E007F0ACFCDCFCECCCE1203F161
:1005B400EF2430A3F09000CEE0FEA3E0FF7C007DAA
:1005C4000A1203F1ED24309000E3F0A37443F07BAE
:0C05D400017A0079DD7D047F03020B2C0E
:100003000202ABE86480F8E933E83360110460F07E
:10001300ED33EC337009E8FCE9FDEAFEEBFF220463
:1000230060DED3EB9FEA9EE99DE8C2E78CF0C2F75E
:1000330095F0400CE8CCF8E9CDF9EACEFAEBCFFB2A
:1000430012027685D0F05804700320D5B3E804700B
:10005300075002B2D50202B592D5EC0460F7E4CCA6
:10006300C0E0C398F8603B94186008400DD0E0FBF3
:1000730002028DE4FBFAC9FC8028E830E406E4C9F7
:10008300FBE4CAFCE830E305E4C9CACBFCE8540747
:100093006010F8C3E913F9EA13FAEB13FBEC13FC52
:1000A300D8F130F52FC3E49CFCEF9BFFEE9AFEEDF5
:1000B30099FDD0E0FBEF4E4D4C701222DB030202A0
:1000C300B2EC2CFCEF33FFEE33FEED33FDED30E706
:1000D300EB02028DEF2BFFEE3AFEED39FDD0E0FB94
:1000E30050130BBB00030202B5ED13FDEE13FEEF3D
:0800F30013FFEC13FC02028D67
:1000FB00EC4D6011E8497017ED33EC3304600DE4FF
:10010B00FCFFFEFD22E933E8330470F80202AB1268
:10011B00027658046009E4CC248150062850090269
:10012B0002B52840030202B2C0E0EB4A7044B9802A
:10013B0006D0E0FB0202A1EF4E701CBD8008EBFF66
:10014B00EAFEE9FD80EBE98DF0A4FEE5F00201E4A7
:10015B00E9CDF9EAFEEBFFEF89F0A4FCE5F0CE89DF
:10016B00F0A42EFFE435F0CD89F0A42DFEE435F09C
:10017B008067EF4E7005BD80D780C3EF8BF0A4ACCA
:10018B00F0EE8BF0A42CFCE435F0F8EF8AF0A42C05
:10019B00E5F038FCE433CB8DF0A42CFCE5F03BF818
:1001AB00EE8AF0A42CFCE5F038F8E433CF89F0A408
:1001BB002CFCE5F038CF3400CE89F0A42FFFE5F00E
:1001CB003EFEE433C98DF0A42EFEE5F039CD8AF066
:1001DB00A42FFFE5F03EFEE43DFD33D0E0FB5007DE
:1001EB000BBB000F0202B5EC2CFCEF33FFEE33FE22
:0601FB00ED33FD02028D50
:1002010075F020800E75F010800575F0087D007E78
:10021100007F003392D530D50312043DEC334010FA
:10022100EF33FFEE33FEED33FDEC33FCD5F0ED2281
:0E023100E5F0247EA2D513CC92E7CDCEFF22BD
:10023F00EDD2E7CD33EC3392D524814006E4FFFEB7
:10024F00FDFC22FCE4CFCECDCC24E0501174FF8016
:10025F00EDC3CC13CCCD13CDCE13CECF13CF0470B3
:07026F00F030D5DE02043D72
:10027600E9D2E7C933E833F892D5EDD2E7CD33ECCE
:0702860033FC5002B2D52247
:10028D00EC30E7100FBF000C0EBE00080DBD0004D2
:10029D000BEB6014A2D5EB13FCED92E7FD2274FF7E
:1002AD00FCFDFEFF22E480F8A2D574FF13FC7D80D7
:0302BD00E480EFEB
:03000000020934BE
:0C093400787FE4F6D8FD75812002097B75
:1002C000E709F608DFFA8046E709F208DFFA803E20
:1002D00088828C83E709F0A3DFFA8032E309F6080D
:1002E000DFFA8078E309F208DFFA807088828C8375
:1002F000E309F0A3DFFA806489828A83E0A3F60829
:10030000DFFA805889828A83E0A3F208DFFA804C02
:1003100080D280FA80C680D4806980F280338010D9
:1003200080A680EA809A80A880DA80E280CA803342
:1003300089828A83ECFAE493A3C8C582C8CCC583BA
:10034000CCF0A3C8C582C8CCC583CCDFE9DEE7808A
:100350000D89828A83E493A3F608DFF9ECFAA9F009
:10036000EDFB2289828A83ECFAE0A3C8C582C8CC5F
:10037000C583CCF0A3C8C582C8CCC583CCDFEADE78
:10038000E880DB89828A83E493A3F208DFF980CCDA
:1003900088F0EF60010E4E60C388F0ED2402B404D3
:1003A0000050B9F582EB2402B4040050AF2323457A
:0603B0008223900310738C
:1003B600BB010689828A83E0225002E722BBFE0245
:0903C600E32289828A83E4932278
:1003CF00F8BB010DE58229F582E5833AF583E8F064
:1003DF00225006E92582C8F622BBFE05E92582C810
:0203EF00F222F8
:1003F100C2D5EC30E709B2D5E4C39DFDE49CFCEE27
:1004010030E715B2D5E4C39FFFE49EFE120457C343
:10041100E49DFDE49CFC800312045730D507C3E43E
:060421009FFFE49EFE2295
:10042700A3F8E0C5F025F0F0E58215827002158388
:06043700E0C838F0E822E5
:0E043D00C3E49FFFE49EFEE49DFDE49CFC22D0
:0C044B00ECF0A3EDF0A3EEF0A3EFF02224
:100940000206E5E493A3F8E493A34003F68001F2E2
:1009500008DFF48029E493A3F85407240CC8C333B8
:10096000C4540F4420C8834004F456800146F6DF87
:10097000E4800B01020408102040809005E0E47E32
:10098000019360BCA3FF543F30E509541FFEE4937C
:10099000A360010ECF54C025E060A840B8E493A343
:1009A000FAE493A3F8E493A3C8C582C8CAC583CA6E
:1009B000F0A3C8C582C8CAC583CADFE9DEE780BE26
:0106E4000015
:10045700BC000BBE0029EF8DF084FFADF022E4CC89
:10046700F875F008EF2FFFEE33FEEC33FCEE9DEC52
:10047700984005FCEE9DFE0FD5F0E9E4CEFD22ED98
:10048700F8F5F0EE8420D21CFEADF075F008EF2FE2
:10049700FFED33FD4007985006D5F0F222C398FDD3
:0504A7000FD5F0EA2270
:00000001FF
